{
  "_format": "hh-sol-artifact-1",
  "contractName": "PatientAccess",
  "sourceName": "contracts/PatientAccess.sol",
  "abi": [
    {
      "anonymous": false,
      "inputs": [
        {
          "indexed": true,
          "internalType": "uint256",
          "name": "batchId",
          "type": "uint256"
        },
        {
          "indexed": false,
          "internalType": "uint256[]",
          "name": "childIds",
          "type": "uint256[]"
        },
        {
          "indexed": false,
          "internalType": "uint256",
          "name": "totalPrice",
          "type": "uint256"
        },
        {
          "indexed": false,
          "internalType": "address",
          "name": "token",
          "type": "address"
        }
      ],
      "name": "AccessBatchCreated",
      "type": "event"
    },
    {
      "anonymous": false,
      "inputs": [
        {
          "indexed": true,
          "internalType": "uint256",
          "name": "id",
          "type": "uint256"
        }
      ],
      "name": "AccessCanceled",
      "type": "event"
    },
    {
      "anonymous": false,
      "inputs": [
        {
          "indexed": true,
          "internalType": "uint256",
          "name": "id",
          "type": "uint256"
        }
      ],
      "name": "AccessExpired",
      "type": "event"
    },
    {
      "anonymous": false,
      "inputs": [
        {
          "indexed": true,
          "internalType": "uint256",
          "name": "id",
          "type": "uint256"
        },
        {
          "indexed": false,
          "internalType": "bytes32",
          "name": "manifestHash",
          "type": "bytes32"
        }
      ],
      "name": "AccessFulfilled",
      "type": "event"
    },
    {
      "anonymous": false,
      "inputs": [
        {
          "indexed": true,
          "internalType": "uint256",
          "name": "id",
          "type": "uint256"
        },
        {
          "indexed": true,
          "internalType": "address",
          "name": "patient",
          "type": "address"
        },
        {
          "indexed": true,
          "internalType": "bytes32",
          "name": "providerClinicKey",
          "type": "bytes32"
        },
        {
          "indexed": false,
          "internalType": "bytes32",
          "name": "requesterClinicKey",
          "type": "bytes32"
        },
        {
          "indexed": false,
          "internalType": "enum PatientAccess.Mode",
          "name": "mode",
          "type": "uint8"
        },
        {
          "indexed": false,
          "internalType": "address",
          "name": "token",
          "type": "address"
        },
        {
          "indexed": false,
          "internalType": "uint256",
          "name": "price",
          "type": "uint256"
        }
      ],
      "name": "AccessRequested",
      "type": "event"
    },
    {
      "anonymous": false,
      "inputs": [
        {
          "indexed": true,
          "internalType": "bytes32",
          "name": "clinicKey",
          "type": "bytes32"
        },
        {
          "indexed": false,
          "internalType": "string",
          "name": "clinicId",
          "type": "string"
        },
        {
          "indexed": false,
          "internalType": "address",
          "name": "payout",
          "type": "address"
        },
        {
          "indexed": false,
          "internalType": "address",
          "name": "operator",
          "type": "address"
        }
      ],
      "name": "ClinicRegistered",
      "type": "event"
    },
    {
      "anonymous": false,
      "inputs": [
        {
          "indexed": true,
          "internalType": "bytes32",
          "name": "clinicKey",
          "type": "bytes32"
        },
        {
          "indexed": false,
          "internalType": "address",
          "name": "payout",
          "type": "address"
        },
        {
          "indexed": false,
          "internalType": "address",
          "name": "operator",
          "type": "address"
        }
      ],
      "name": "ClinicUpdated",
      "type": "event"
    },
    {
      "anonymous": false,
      "inputs": [
        {
          "indexed": true,
          "internalType": "address",
          "name": "patient",
          "type": "address"
        },
        {
          "indexed": true,
          "internalType": "bytes32",
          "name": "clinicKey",
          "type": "bytes32"
        },
        {
          "indexed": false,
          "internalType": "bytes32",
          "name": "aliasHash",
          "type": "bytes32"
        }
      ],
      "name": "PatientAliasLinked",
      "type": "event"
    },
    {
      "anonymous": false,
      "inputs": [
        {
          "indexed": true,
          "internalType": "uint256",
          "name": "id",
          "type": "uint256"
        }
      ],
      "name": "PatientApproved",
      "type": "event"
    },
    {
      "anonymous": false,
      "inputs": [
        {
          "indexed": true,
          "internalType": "bytes32",
          "name": "providerClinicKey",
          "type": "bytes32"
        },
        {
          "indexed": false,
          "internalType": "address",
          "name": "token",
          "type": "address"
        },
        {
          "indexed": false,
          "internalType": "uint256",
          "name": "readPrice",
          "type": "uint256"
        },
        {
          "indexed": false,
          "internalType": "uint256",
          "name": "copyPrice",
          "type": "uint256"
        }
      ],
      "name": "PriceSet",
      "type": "event"
    },
    {
      "inputs": [
        {
          "internalType": "uint256",
          "name": "id",
          "type": "uint256"
        }
      ],
      "name": "approveByPatient",
      "outputs": [],
      "stateMutability": "nonpayable",
      "type": "function"
    },
    {
      "inputs": [
        {
          "internalType": "uint256",
          "name": "",
          "type": "uint256"
        }
      ],
      "name": "batches",
      "outputs": [
        {
          "internalType": "uint256",
          "name": "batchId",
          "type": "uint256"
        },
        {
          "internalType": "address",
          "name": "patient",
          "type": "address"
        },
        {
          "internalType": "bytes32",
          "name": "requesterClinicKey",
          "type": "bytes32"
        },
        {
          "internalType": "enum PatientAccess.Mode",
          "name": "mode",
          "type": "uint8"
        },
        {
          "internalType": "uint256",
          "name": "totalPrice",
          "type": "uint256"
        },
        {
          "internalType": "address",
          "name": "token",
          "type": "address"
        },
        {
          "internalType": "bool",
          "name": "exists",
          "type": "bool"
        }
      ],
      "stateMutability": "view",
      "type": "function"
    },
    {
      "inputs": [
        {
          "internalType": "uint256",
          "name": "id",
          "type": "uint256"
        }
      ],
      "name": "cancel",
      "outputs": [],
      "stateMutability": "nonpayable",
      "type": "function"
    },
    {
      "inputs": [
        {
          "internalType": "bytes32",
          "name": "",
          "type": "bytes32"
        }
      ],
      "name": "clinics",
      "outputs": [
        {
          "internalType": "bool",
          "name": "registered",
          "type": "bool"
        },
        {
          "internalType": "string",
          "name": "clinicId",
          "type": "string"
        },
        {
          "internalType": "address",
          "name": "payout",
          "type": "address"
        },
        {
          "internalType": "address",
          "name": "operator",
          "type": "address"
        }
      ],
      "stateMutability": "view",
      "type": "function"
    },
    {
      "inputs": [
        {
          "internalType": "address",
          "name": "patient",
          "type": "address"
        },
        {
          "internalType": "string",
          "name": "requesterClinicId",
          "type": "string"
        },
        {
          "internalType": "string[]",
          "name": "providerClinicIds",
          "type": "string[]"
        },
        {
          "internalType": "enum PatientAccess.Mode",
          "name": "mode",
          "type": "uint8"
        }
      ],
      "name": "createAccessBatch",
      "outputs": [
        {
          "internalType": "uint256",
          "name": "batchId",
          "type": "uint256"
        },
        {
          "internalType": "uint256[]",
          "name": "childIds",
          "type": "uint256[]"
        },
        {
          "internalType": "uint256",
          "name": "totalPrice",
          "type": "uint256"
        },
        {
          "internalType": "address",
          "name": "token",
          "type": "address"
        }
      ],
      "stateMutability": "nonpayable",
      "type": "function"
    },
    {
      "inputs": [
        {
          "internalType": "uint256",
          "name": "id",
          "type": "uint256"
        }
      ],
      "name": "expire",
      "outputs": [],
      "stateMutability": "nonpayable",
      "type": "function"
    },
    {
      "inputs": [
        {
          "internalType": "uint256",
          "name": "id",
          "type": "uint256"
        },
        {
          "internalType": "bytes32",
          "name": "manifestHash",
          "type": "bytes32"
        }
      ],
      "name": "markFulfilled",
      "outputs": [],
      "stateMutability": "nonpayable",
      "type": "function"
    },
    {
      "inputs": [],
      "name": "nextBatchId",
      "outputs": [
        {
          "internalType": "uint256",
          "name": "",
          "type": "uint256"
        }
      ],
      "stateMutability": "view",
      "type": "function"
    },
    {
      "inputs": [],
      "name": "nextReqId",
      "outputs": [
        {
          "internalType": "uint256",
          "name": "",
          "type": "uint256"
        }
      ],
      "stateMutability": "view",
      "type": "function"
    },
    {
      "inputs": [
        {
          "internalType": "address",
          "name": "",
          "type": "address"
        },
        {
          "internalType": "bytes32",
          "name": "",
          "type": "bytes32"
        }
      ],
      "name": "patientAlias",
      "outputs": [
        {
          "internalType": "bytes32",
          "name": "",
          "type": "bytes32"
        }
      ],
      "stateMutability": "view",
      "type": "function"
    },
    {
      "inputs": [
        {
          "internalType": "bytes32",
          "name": "",
          "type": "bytes32"
        }
      ],
      "name": "prices",
      "outputs": [
        {
          "internalType": "address",
          "name": "token",
          "type": "address"
        },
        {
          "internalType": "uint256",
          "name": "readPrice",
          "type": "uint256"
        },
        {
          "internalType": "uint256",
          "name": "copyPrice",
          "type": "uint256"
        },
        {
          "internalType": "bool",
          "name": "set",
          "type": "bool"
        }
      ],
      "stateMutability": "view",
      "type": "function"
    },
    {
      "inputs": [
        {
          "internalType": "string",
          "name": "clinicId",
          "type": "string"
        },
        {
          "internalType": "address",
          "name": "payout",
          "type": "address"
        },
        {
          "internalType": "address",
          "name": "operator",
          "type": "address"
        }
      ],
      "name": "registerClinic",
      "outputs": [],
      "stateMutability": "nonpayable",
      "type": "function"
    },
    {
      "inputs": [
        {
          "internalType": "uint256",
          "name": "",
          "type": "uint256"
        }
      ],
      "name": "reqs",
      "outputs": [
        {
          "internalType": "uint256",
          "name": "id",
          "type": "uint256"
        },
        {
          "internalType": "address",
          "name": "patient",
          "type": "address"
        },
        {
          "internalType": "bytes32",
          "name": "providerClinicKey",
          "type": "bytes32"
        },
        {
          "internalType": "bytes32",
          "name": "requesterClinicKey",
          "type": "bytes32"
        },
        {
          "internalType": "enum PatientAccess.Mode",
          "name": "mode",
          "type": "uint8"
        },
        {
          "internalType": "address",
          "name": "token",
          "type": "address"
        },
        {
          "internalType": "uint256",
          "name": "price",
          "type": "uint256"
        },
        {
          "internalType": "enum PatientAccess.Status",
          "name": "status",
          "type": "uint8"
        },
        {
          "internalType": "bytes32",
          "name": "manifestHash",
          "type": "bytes32"
        }
      ],
      "stateMutability": "view",
      "type": "function"
    },
    {
      "inputs": [
        {
          "internalType": "address",
          "name": "patient",
          "type": "address"
        },
        {
          "internalType": "string",
          "name": "providerClinicId",
          "type": "string"
        },
        {
          "internalType": "string",
          "name": "requesterClinicId",
          "type": "string"
        },
        {
          "internalType": "enum PatientAccess.Mode",
          "name": "mode",
          "type": "uint8"
        }
      ],
      "name": "requestPatientAccess",
      "outputs": [
        {
          "internalType": "uint256",
          "name": "id",
          "type": "uint256"
        }
      ],
      "stateMutability": "nonpayable",
      "type": "function"
    },
    {
      "inputs": [
        {
          "internalType": "string",
          "name": "clinicId",
          "type": "string"
        },
        {
          "internalType": "bytes32",
          "name": "aliasHash",
          "type": "bytes32"
        }
      ],
      "name": "setPatientAlias",
      "outputs": [],
      "stateMutability": "nonpayable",
      "type": "function"
    },
    {
      "inputs": [
        {
          "internalType": "string",
          "name": "providerClinicId",
          "type": "string"
        },
        {
          "internalType": "address",
          "name": "token",
          "type": "address"
        },
        {
          "internalType": "uint256",
          "name": "readPrice",
          "type": "uint256"
        },
        {
          "internalType": "uint256",
          "name": "copyPrice",
          "type": "uint256"
        }
      ],
      "name": "setPrice",
      "outputs": [],
      "stateMutability": "nonpayable",
      "type": "function"
    },
    {
      "inputs": [
        {
          "internalType": "string",
          "name": "clinicId",
          "type": "string"
        },
        {
          "internalType": "address",
          "name": "payout",
          "type": "address"
        },
        {
          "internalType": "address",
          "name": "operator",
          "type": "address"
        }
      ],
      "name": "updateClinic",
      "outputs": [],
      "stateMutability": "nonpayable",
      "type": "function"
    }
  ],
  "bytecode": "0x6080806040523461001b576001600055611f8090816100218239f35b600080fdfe6080604052600436101561001257600080fd5b60003560e01c80630a4807561461183657806340e58ee51461169c5780635163f512146115c157806360846bc61461156657806361ed494014610e3e57806376a5a7ce14610df657806382cff59814610aac57806383de896b14610a085780638462a7f8146109ea5780638f2c477b14610838578063b32c4d8d146107b3578063bf81bf4314610648578063eb4849f21461056f578063eb4defb01461034d578063eeefc93f14610230578063ef8e7b60146102125763f43af9dc146100d757600080fd5b3461020d576100f76100fc6100eb366119be565b93929094913691611ac4565b611d61565b9161010683611e9c565b8260005260029182602052604060002060018060a01b03908180868301541633149182156101fc575b5050156101c1577f2fde2c5ee751742b616d468ae5a442886221d9701de8fd1d12d5ce5d22fbf8bf9381604094168061019b575b508560005280602052836000208260038201941693846001600160601b0360a01b8254161790550154169082519182526020820152a2005b8660005281602052818560002001906001600160601b0360a01b82541617905538610163565b60405162461bcd60e51b81526020600482015260136024820152724e4f545f415554485f464f525f55504441544560681b6044820152606490fd5b60039192500154163314813861012f565b600080fd5b3461020d57600036600319011261020d576020600554604051908152f35b3461020d5760208060031936011261020d5760043560005260028152604060002060ff815416600180830192604051906000948681549461027086611a0f565b928386528286019660018116908160001461032d57506001146102f0575b505050506102a08260a0960383611a80565b6102d8600180871b03600381600285015416930154169260806040519889971515885287015251809481608088015287870190611aa1565b60408401526060830152601f01601f19168101030190f35b600090815282812092985092915b82841061031a575050508201909401936102a08660a08461028e565b80548685018a01529288019281016102fe565b60ff1916885250505090151560051b83010194506102a08660a08461028e565b3461020d5761035b366119be565b91909261036c6100f7368484611ac4565b928360005260209460028652604060002095600180978160ff19825416178155016001600160401b038611610559576103a58154611a0f565b601f811161051e575b50600097601f87116001146104935791869391848060809897957f6bc4ca82b1a6c9fb60003101fb9a4c9251d6f01ab4fdce369e46af1449e07ac39b9c600093610488575b501b906000198760031b1c19161790555b6001600160a01b0391808316610482575033925b8960005260028252604060002092600381600286019616946001600160601b0360a01b9686888254161790550191168094825416179055604051968795606087528160608801528787013760008585018701528401526040830152601f01601f19168101030190a2005b92610418565b89013592508d6103f3565b601f1987169882600052836000209960005b8181106105095750917f6bc4ca82b1a6c9fb60003101fb9a4c9251d6f01ab4fdce369e46af1449e07ac3999a899694928760809a999795106104ef575b505085811b019055610404565b880135600019600389901b60f8161c191690558b806104e2565b888301358c559a83019a9185019185016104a5565b610549908260005283600020601f890160051c810191858a1061054f575b601f0160051c0190611d4a565b886103ae565b909150819061053c565b634e487b7160e01b600052604160045260246000fd5b3461020d57602036600319011261020d57600435806000526004602052604060002061059d82825414611b42565b600681019081549060ff82166005811015610632576105bc9015611b7c565b600101546001600160a01b031633036105ff5760ff191660011790557f8b7b32db4b7efa87ea003d5d341a37046f703fd46583ca501df1786e776294f8600080a2005b60405162461bcd60e51b815260206004820152600b60248201526a1393d517d410551251539560aa1b6044820152606490fd5b634e487b7160e01b600052602160045260246000fd5b3461020d5760208060031936011261020d5760043561066b600160005414611b0a565b6002600055806000526004825260406000209061068a81835414611b42565b6006820191825460ff81169260058410156106325761074a946106b8858896159081156107a8575b50611b7c565b600380850154936106c885611e16565b60ff191617905560006040518096819582947fcb85d104a376ed75ac5a65f0625725ca70a0b4fb7d0dae7b016cf0f9b7aef73d8580a26004818101549685526002808a5260408620015460059092015463a9059cbb60e01b85526001600160a01b0392831691850191909152602484015260089590951c909416936044820190565b03925af190811561079c576107689260009261076f575b5050611be5565b6001600055005b61078e9250803d10610795575b6107868183611a80565b810190611bcd565b8280610761565b503d61077c565b6040513d6000823e3d90fd5b6001915014896106b2565b3461020d57602036600319011261020d57600435600052600660205260e0604060002060ff81549160018060a01b03806001830154169161081f6002820154856003840154169060066005850154940154956040519889526020890152604088015260608701906119b1565b6080850152811660a084015260a01c16151560c0820152f35b3461020d57604036600319011261020d576004356024359061085e600160005414611b0a565b6002600055806000526020916004835260406000209161088081845414611b42565b600683019182549260ff84166005811015610632576001036109b657917f936376b0c170c626f47c86a8884214caa2163b2241811b2130bf74501051b6938680959387956002806109479a0154966108d788611d91565b60ff1916179055806007870155604051908152a2600560018060a01b0380600485015460081c1692600052600285526002604060002001541692015491600060405180968195829463a9059cbb60e01b84526004840160209093929193604081019460018060a01b031681520152565b03925af190811561079c57600091610999575b5015610967576001600055005b6064906040519062461bcd60e51b82526004820152600b60248201526a14105653d55517d190525360aa1b6044820152fd5b6109b09150823d8411610795576107868183611a80565b8261095a565b60405162461bcd60e51b815260048101879052600c60248201526b1393d517d054141493d5915160a21b6044820152606490fd5b3461020d57600036600319011261020d576020600754604051908152f35b3461020d57602036600319011261020d5760043560005260046020526040600020805460018060a01b0380600184015416906002840154906003850154600486015490600587015493600760ff60068a01541698015495604051978852602088015260408701526060860152610a846080860160ff83166119b1565b60081c1660a084015260c08301526005831015610632576101209260e0830152610100820152f35b3461020d57608036600319011261020d57610ac5611967565b6001600160401b0360243581811161020d57610ae590369060040161193a565b9160443590811161020d57610afe90369060040161193a565b92906002606435101561020d57610b336100f7610b3b946100f794610b27600160005414611b0a565b60026000553691611ac4565b933691611ac4565b90610b4582611e16565b806000526002602052610b5f60ff60406000205416611c36565b806000526003602052604060002091604051610b7a81611a49565b60018060a01b03845416815260018401549060208101918252610bb760ff6003600288015497604085019889520154161515806060840152611c75565b516001600160a01b031693606435610ded575051935b610bd8851515611cb1565b6040516323b872dd60e01b8152336004820152306024820152604481018690526020816064816000895af190811561079c57600091610dce575b5015610d9257610c23600554611cea565b938460055560405190610c3582611a64565b8582526001600160a01b03831660208301526040820185905260608201849052610c6460643560808401611cf9565b8060a08301528660c0830152600060e08301526000610100830152856000526004602052604060002092825184556001840160018060a01b036020850151166001600160601b0360a01b8254161790556040830151600285015560608301516003850155600484016080840151600281101561063257610ce49082611d05565b60a08401518154610100600160a81b03191660089190911b610100600160a81b031617905560c083015160058581019190915560e084015190811015610632576020988560076101007fc5c8432df7781479ca44ddd59722c497efd72d818fdb02a43403464fbc27ee6e97610d60610d829660068f9c01611bb5565b01519101556040516001600160a01b0390931696929384936064359085611d1d565b0390a46001600055604051908152f35b60405162461bcd60e51b81526020600482015260146024820152731154d0d493d5d7d514905394d1915497d190525360621b6044820152606490fd5b610de7915060203d602011610795576107868183611a80565b86610c12565b90505193610bcd565b3461020d57604036600319011261020d576001600160a01b03610e17611967565b16600052600160205260406000206024356000526020526020604060002054604051908152f35b3461020d57608036600319011261020d57610e57611967565b6024356001600160401b03811161020d57610e7690369060040161193a565b6001600160401b036044351161020d5736602360443501121561020d576001600160401b03604435600401351161020d573660246044356004013560051b60443501011161020d576002606435101561020d57610edf916100f791610b27600160005414611b0a565b610ee881611e16565b604435600401351561152f57610f0360443560040135611c1f565b91610f116040519384611a80565b60046044350135808452610f2490611c1f565b601f190136602085013760009060009060005b60443560040135811061120e57506040516323b872dd60e01b81523360048201523060248201526044810184905260208160648160006001600160a01b0388165af190811561079c576000916111ef575b50156111b657610f99600754611cea565b938460075560405191826101008101106001600160401b036101008501111761055957610100830160405285835260018060a01b031660208301526040820152610fe860643560608301611cf9565b8460808201528260a082015260018060a01b03821660c0820152600160e08201528360005260066020526040600020815181556001810160018060a01b036020840151166001600160601b0360a01b8254161790556040820151600282015560608201516002811015610632576110629060038301611d05565b600481016080830151908151916001600160401b03831161055957680100000000000000008311610559576020908254848455808510611199575b500190600052602060002060005b838110611185575050505060069060a08301516005820155019060018060a01b0360c08201511682549160e060ff60a01b910151151560a01b16916affffffffffffffffffffff60a81b1617179055827f8eae6314592b11d49cc46ffad76d29114c73421a4fd0d2032840f796754687a96040516060815280611131606082018961197d565b602082018790526001600160a01b03861660408301520390a2600160005561116b604051948594855260806020860152608085019061197d565b60408401929092526001600160a01b031660608301520390f35b6001906020845194019381840155016110ab565b6111b0908460005285846000209182019101611d4a565b8a61109d565b60405162461bcd60e51b815260206004820152601160248201527010905510d217d154d0d493d5d7d1905253607a1b6044820152606490fd5b611208915060203d602011610795576107868183611a80565b86610f88565b9260421960443536030160248560051b604435010135121561020d5760248460051b604435010135604435016001600160401b0360248201351161020d5760248101353603604482011361020d576100f7611273913690604460248201359101611ac4565b9283600052600260205261128e60ff60406000205416611c36565b83600052600360205260406000206112e260ff6003604051936112b085611a49565b80546001600160a01b031685526001810154602086015260028101546040860152015416151560608301819052611c75565b80516001600160a01b03169060026064351015610632576064356115255760200151915b611311831515611cb1565b866114de575080945b611325600554611cea565b918260055560405161133681611a64565b8381526001600160a01b038716602082015260408101839052606081018a905261136560643560808301611cf9565b8160a08201528460c0820152600060e08201526000610100820152836000526004602052604060002090805182556001820160018060a01b036020830151166001600160601b0360a01b825416179055604081015160028301556060810151600383015560808101516002811015610632576113e49060048401611d05565b60a0810151600483018054610100600160a81b03191660089290921b610100600160a81b031691909117905560c081015160058084019190915560e082015190811015610632578b938360076101007fc5c8432df7781479ca44ddd59722c497efd72d818fdb02a43403464fbc27ee6e956114648c9660068d9a01611bb5565b01519101556040516001600160a01b038b169590928392611489926064359085611d1d565b0390a487518610156114c85760208660051b8901015280820182116114b2570192600101610f37565b634e487b7160e01b600052601160045260246000fd5b634e487b7160e01b600052603260045260246000fd5b946001600160a01b038616821461131a5760405162461bcd60e51b815260206004820152600e60248201526d0a89e968a9cbe9a92a69a82a886960931b6044820152606490fd5b6040015191611306565b60405162461bcd60e51b815260206004820152600f60248201526e454d5054595f50524f56494445525360881b6044820152606490fd5b3461020d57602036600319011261020d5760043560005260036020526080604060002060018060a01b038154169060018101549060ff6003600283015492015416916040519384526020840152604083015215156060820152f35b3461020d57604036600319011261020d576004356001600160401b03811161020d576116046115f76100f792369060040161193a565b9290602435933691611ac4565b9081600052600260205260ff604060002054161561166657336000526001602052604060002082600052602052806040600020556040519081527ff1a4bd325a8e3b33d409e38caea6eeb07da6d1116223cf77fb709f6940629ca660203392a3005b60405162461bcd60e51b815260206004820152600e60248201526d21a624a724a1afaaa725a727aba760911b6044820152606490fd5b3461020d5760208060031936011261020d576004356116bf600160005414611b0a565b60028060005581600052600483526040600020916116df81845414611b42565b600683019081549160ff831660058110156106325780611707911590811561182b5750611b7c565b60018501546001600160a01b03939084163314801561180e575b80156117f0575b156117b95786949260059492600460009360ff191617905561074a604051978896879586947f3b29495c84ca1ea9060f0bc009303b4873c4dcf4c7d496f19b621aab39f9aad68780a280600484015460081c169760038401548752808b52604087200154169101549063a9059cbb60e01b84526004840160209093929193604081019460018060a01b031681520152565b60405162461bcd60e51b815260048101889052600f60248201526e1393d517d055551217d0d05390d153608a1b6044820152606490fd5b50600386015460005284875283600360406000200154163314611728565b506003860154600052848752838560406000200154163314611721565b6001915014886106b2565b3461020d57608036600319011261020d576004356001600160401b03811161020d5761186690369060040161193a565b6001600160a01b03916024358381169081900361020d577f2321ca7ae984a3cbc6cd748e768d725326571b60c3aa97647fe9b28a6c195f3f926060926118b76100f760443592606435943691611ac4565b956118c187611d91565b60036040516118cf81611a49565b85815260208101848152604082019086825288830194600186528b6000528460205260406000209351166001600160601b0360a01b845416178355516001830155516002820155019051151560ff8019835416911617905560405192835260208301526040820152a2005b9181601f8401121561020d578235916001600160401b03831161020d576020838186019501011161020d57565b600435906001600160a01b038216820361020d57565b90815180825260208080930193019160005b82811061199d575050505090565b83518552938101939281019260010161198f565b9060028210156106325752565b606060031982011261020d57600435906001600160401b03821161020d576119e89160040161193a565b90916001600160a01b0390602435828116810361020d5791604435908116810361020d5790565b90600182811c92168015611a3f575b6020831014611a2957565b634e487b7160e01b600052602260045260246000fd5b91607f1691611a1e565b608081019081106001600160401b0382111761055957604052565b61012081019081106001600160401b0382111761055957604052565b90601f801991011681019081106001600160401b0382111761055957604052565b60005b838110611ab45750506000910152565b8181015183820152602001611aa4565b9291926001600160401b0382116105595760405191611aed601f8201601f191660200184611a80565b82948184528183011161020d578281602093846000960137010152565b15611b1157565b60405162461bcd60e51b815260206004820152600960248201526814915153951490539560ba1b6044820152606490fd5b15611b4957565b60405162461bcd60e51b815260206004820152600b60248201526a2922a8afaaa725a727aba760a91b6044820152606490fd5b15611b8357565b60405162461bcd60e51b815260206004820152600a6024820152694241445f53544154555360b01b6044820152606490fd5b9060058110156106325760ff80198354169116179055565b9081602091031261020d5751801515810361020d5790565b15611bec57565b60405162461bcd60e51b815260206004820152600b60248201526a14915195539117d190525360aa1b6044820152606490fd5b6001600160401b0381116105595760051b60200190565b15611c3d57565b60405162461bcd60e51b815260206004820152601060248201526f282927ab24a222a92faaa725a727aba760811b6044820152606490fd5b15611c7c57565b60405162461bcd60e51b815260206004820152600d60248201526c14149250d157d393d517d4d155609a1b6044820152606490fd5b15611cb857565b60405162461bcd60e51b815260206004820152600a60248201526950524943455f5a45524f60b01b6044820152606490fd5b60001981146114b25760010190565b60028210156106325752565b9060028110156106325760ff80198354169116179055565b90949392611d386060936080840197845260208401906119b1565b6001600160a01b031660408201520152565b818110611d55575050565b60008155600101611d4a565b604051611d8b60208281611d7e8183019687815193849201611aa1565b8101038084520182611a80565b51902090565b611d9a81611e9c565b6000526002602052604060002060018060a01b03806002830154163314918215611e05575b505015611dc857565b60405162461bcd60e51b81526020600482015260156024820152742727aa2fa82927ab24a222a92fa7a822a920aa27a960591b6044820152606490fd5b600391925001541633143880611dbf565b611e1f81611e9c565b6000526002602052604060002060018060a01b03806002830154163314918215611e8b575b505015611e4d57565b60405162461bcd60e51b81526020600482015260166024820152752727aa2fa922a8aaa2a9aa22a92fa7a822a920aa27a960511b6044820152606490fd5b600391925001541633143880611e44565b80600052600260205260ff6040600020541615611f0d57600052600260205260018060a01b036002604060002001541615611ed357565b60405162461bcd60e51b8152602060048201526012602482015271434c494e49435f5041594f55545f5a45524f60701b6044820152606490fd5b60405162461bcd60e51b815260206004820152601560248201527410d312539250d7d393d517d49151d254d511549151605a1b6044820152606490fdfea2646970667358221220c1daab06eb9ed6f7a3cdda7782c6bad3935048bf0ed03e2eefb002f8b8ca725a64736f6c63430008170033",
  "linkReferences": {},
  "deployedLinkReferences": {}
}